:100000000C9463000C948B000C948B000C948B006C
:100010000C948B000C948B000C948B000C94730349
:100020000C948B000C948B000C948B000C9471043A
:100030000C948B000C948B000C948B000C948B0014
:100040000C9427040C948B000C94F5030C94CF03B0
:100050000C948B000C948B000C948B000C948B00F4
:100060000C948B000C948B000000000024002700EF
:100070002A000000000023002600290000000008DC
:10008000000201000003040700000000000000005F
:10009000010204081020408001020408102001021F
:1000A0000408102000000000250028002B00040494
:1000B0000404040404040202020202020303030310
:1000C000030302002D0511241FBECFEFD8E0DEBFD1
:1000D000CDBF11E0A0E0B1E0E2EBF0E102C005909D
:1000E0000D92AE33B107D9F722E0AEE3B1E001C023
:1000F0001D92AE31B207E1F710E0C3E6D0E004C0D4
:100100002197FE010E945108C236D107C9F70E940B
:100110008A050C9457080C9400008F929F92AF921E
:10012000BF92FF920F931F93CF93DF93F0901B0228
:100130002BE02F1508F44CC020911D0208E512E0B9
:10014000021B110927FD1395000F111F000F111F2E
:1001500020911C02C8E8D0E0C21BD10927FDD3952D
:10016000CC0FDD1FCC0FDD1F4E010D2E000CAA0899
:10017000BB089801012E000C440B550B28193909B6
:100180004A095B09DC010E940C0824EB30E040E0E6
:1001900050E00E94E207820E931EA41EB51E8C162C
:1001A0009D062CF0E801801691060CF4E4012297DC
:1001B000CC0FDD1F2FB7F8948F2D90E0FC01EE0FD0
:1001C000FF1FE80FF91FEA50FE4FD283C1832FBFF4
:1001D000DF91CF911F910F91FF90BF90AF909F90B3
:1001E0008F900895AF92BF92CF92DF92EF92FF92DD
:1001F0000F931F93CF93DF936C017B018B01040F4F
:10020000151FEB015E01AE18BF08C017D10759F0EA
:100210006991D601ED91FC910190F081E02DC6012C
:100220000995892B79F7C501DF91CF911F910F9126
:10023000FF90EF90DF90CF90BF90AF900895FC01BA
:10024000538D448D252F30E0842F90E0821B930B3B
:10025000541710F0CF96089501970895FC01918DE1
:10026000828D981761F0A28DAE0FBF2FB11D5D96E4
:100270008C91928D9F5F9F73928F90E008958FEF86
:100280009FEF0895FC01918D828D981731F0828D3A
:10029000E80FF11D858D90E008958FEF9FEF089591
:1002A000FC01918D228D892F90E0805C9F4F821BF5
:1002B00091098F739927089589E591E00E94500173
:1002C00021E0892B09F420E0822F089580E090E05E
:1002D000892B29F00E945C0181110C940000089583
:1002E000FC01A48DA80FB92FB11DA35ABF4F2C91AB
:1002F000848D90E001968F739927848FA689B789A2
:100300002C93A089B1898C91837080648C93938D98
:10031000848D981306C00288F389E02D80818F7D3B
:1003200080830895EF92FF920F931F93CF93DF93F3
:10033000EC0181E0888F9B8D8C8D98131AC0E88921
:10034000F989808185FF15C09FB7F894EE89FF89F0
:100350006083E889F98980818370806480839FBF8E
:1003600081E090E0DF91CF911F910F91FF90EF908E
:100370000895F62E0B8D10E00F5F1F4F0F7311279E
:10038000E02E8C8D8E110CC00FB607FCFACFE889D9
:10039000F989808185FFF5CFCE010E947001F1CFF0
:1003A000EB8DEC0FFD2FF11DE35AFF4FF0829FB74D
:1003B000F8940B8FEA89FB8980818062CFCFCF933D
:1003C000DF93EC01888D8823B9F0AA89BB89E8897D
:1003D000F9898C9185FD03C0808186FD0DC00FB623
:1003E00007FCF7CF8C9185FFF2CF808185FFEDCFA1
:1003F000CE010E947001E9CFDF91CF910895833043
:1004000081F028F4813099F08230A9F00895873086
:10041000A9F08830C9F08430B1F4809180008F7DDC
:1004200003C0809180008F7780938000089584B509
:100430008F7784BD089584B58F7DFBCF8091B00008
:100440008F778093B00008958091B0008F7DF9CFB1
:10045000CF93DF93282F30E0F901E458FF4F8491C8
:10046000F901E057FF4FD491F901E255FF4FC491D4
:10047000CC23A1F081110E94FF01EC2FF0E0EE0FE0
:10048000FF1FEE58FF4FA591B491EC91ED2381E051
:1004900090E009F480E0DF91CF91089580E090E052
:1004A000FACF1F93CF93DF93282F30E0F901E45860
:1004B000FF4F8491F901E057FF4FD491F901E255C4
:1004C000FF4FC491CC23A9F0162F81110E94FF0188
:1004D000EC2FF0E0EE0FFF1FEC55FF4FA591B4910C
:1004E0008FB7F894EC91111108C0D095DE23DC93FE
:1004F0008FBFDF91CF911F910895DE2BF8CF9091A0
:10050000000189130BC0E2ECF0E0E4919FEF9093BF
:100510000001E13049F028F0E23061F060E00C9435
:10052000510210926E00FACF90916F009D7F9093D0
:100530006F00F4CF909170009D7F9093700091E0D8
:100540009093B0009091B100987F94609093B10027
:100550001092B300E3CFCF93DF9390E0FC01E0571C
:10056000FF4F249182559F4FFC0184918823D1F045
:1005700090E0880F991FFC01E859FF4FA591B491B5
:10058000FC01EC55FF4FC591D49161110EC09FB78E
:10059000F8948C91E22FE0958E238C932881E223AE
:1005A000E8839FBFDF91CF9108958FB7F894EC91C6
:1005B000E22BEC938FBFF6CF3FB7F89480914401C4
:1005C00090914501A0914601B091470126B5A89BA5
:1005D00005C02F3F19F00196A11DB11D3FBFBA2FD5
:1005E000A92F982F8827BC01CD01620F711D811D95
:1005F000911D42E0660F771F881F991F4A95D1F71A
:100600000895FC0101900020E9F73197AF01481BE4
:10061000590BBC0189E591E00C94F2008F929F92F6
:10062000AF92BF920F931F93CF93DF93CDB7DEB7F7
:10063000A1970FB6F894DEBF0FBECDBF19A242300E
:1006400008F44AE08E010F5D1F4F842E912CB12CCF
:10065000A12CA50194010E941408E62FB901CA013A
:10066000EA30F4F4E05DD801EE938D01232B242BC6
:10067000252B79F790E080E0109719F0CD010E94CA
:100680000103A1960FB6F894DEBF0FBECDBFDF9178
:10069000CF911F910F91BF90AF909F908F90089531
:1006A000E95CE1CFCF92DF92EF92FF92CF93DF939D
:1006B0006B017C016DE289E591E00E949201EC0101
:1006C00066277727CB016C197D098E099F094AE0BF
:1006D0000E940E038C0F9D1FDF91CF91FF90EF9032
:1006E000DF90CF9008951F920F920FB60F921124B2
:1006F0002F933F934F935F936F937F938F939F932A
:10070000AF93BF93EF93FF9380914D0190914E0172
:10071000A0914F01B0915001892B8A2B8B2BD1F1E5
:1007200090914801E0914901F0914A018081892727
:10073000808380914D0190914E01A0914F01B09125
:100740005001181619061A061B069CF480914D01DB
:1007500090914E01A0914F01B09150010197A109D4
:10076000B10980934D0190934E01A0934F01B09336
:100770005001FF91EF91BF91AF919F918F917F9128
:100780006F915F914F913F912F910F900FBE0F90FE
:100790001F901895809100010E947F02EACF1F925E
:1007A0000F920FB60F9211242F933F934F935F93A5
:1007B0006F937F938F939F93AF93BF93EF93FF9329
:1007C00089E591E00E947001FF91EF91BF91AF9197
:1007D0009F918F917F916F915F914F913F912F9159
:1007E0000F900FBE0F901F9018951F920F920FB68B
:1007F0000F9211242F938F939F93EF93FF93E09188
:100800006901F0916A018081E0916F01F0917001BE
:1008100082FD1BC09081809172018F5F8F73209148
:100820007301821741F0E0917201F0E0E75AFE4F48
:10083000958F80937201FF91EF919F918F912F91EE
:100840000F900FBE0F901F9018958081F4CF1F92CC
:100850000F920FB60F9211242F933F938F939F9374
:10086000AF93BF938091400190914101A0914201CB
:10087000B091430130913F0123E0230F2D3758F50C
:100880000196A11DB11D20933F01809340019093DB
:100890004101A0934201B0934301809144019091A2
:1008A0004501A0914601B09147010196A11DB11DDE
:1008B0008093440190934501A0934601B093470172
:1008C000BF91AF919F918F913F912F910F900FBE4C
:1008D0000F901F90189526E8230F0296A11DB11DB9
:1008E000D2CF1F920F920FB60F9211242F933F93E6
:1008F0004F935F936F937F938F939F93AF93BF9328
:10090000CF93DF93EF93FF9380913E01C0911A0242
:10091000D0E087FF24C0109285001092840080915F
:100920003E018F5F80933E0180913E01082E000CB6
:10093000990B8C179D0724F480913E018C30C4F1F3
:100940008091840090918500049680349C4908F43D
:100950007AC08091840090918500049676C0809141
:100960003E01082E000C990B8C179D07C4F6E091F0
:100970003E018E2FEE0F990BFC01EE0FFF1FE80FCB
:10098000F91FEA50FE4F808186FFC9CFE0913E01FA
:100990008E2FEE0F990BFC01EE0FFF1FE80FF91FD2
:1009A000EA50FE4F808160E08F730E945102B7CF02
:1009B0002091840030918500E0913E018E2FEE0F52
:1009C000990BFC01EE0FFF1FE80FF91FEA50FE4FD5
:1009D00081819281820F931F909389008093880078
:1009E000E0913E018E2FEE0F990BFC01EE0FFF1FE1
:1009F000E80FF91FEA50FE4F808186FF11C0E09199
:100A00003E018E2FEE0F990BFC01EE0FFF1FE80F3A
:100A1000F91FEA50FE4F808161E08F730E945102FE
:100A2000FF91EF91DF91CF91BF91AF919F918F9106
:100A30007F916F915F914F913F912F910F900FBEDA
:100A40000F901F90189580E49CE990938900809303
:100A500088008FEF80933E01E3CF10925C011092EB
:100A60005B0188EE93E0A0E0B0E080935D0190939D
:100A70005E01A0935F01B093600185E091E09093E7
:100A80005A018093590185EC90E090936601809320
:100A9000650184EC90E0909368018093670180EC9D
:100AA00090E090936A018093690181EC90E09093CB
:100AB0006C0180936B0182EC90E090936E018093C7
:100AC0006D0186EC90E09093700180936F0110921D
:100AD000720110927301109274011092750180914D
:100AE0001A028C3098F491E0980F90931A02809338
:100AF0001B0290E0FC01EE0FFF1FE80FF91FEA5008
:100B0000FE4F88EB9BE09283818308958FEF809363
:100B10001B020895789484B5826084BD84B5816099
:100B200084BD85B5826085BD85B5816085BD8091B8
:100B30006E00816080936E00109281008091810030
:100B40008260809381008091810081608093810028
:100B5000809180008160809380008091B1008460EA
:100B60008093B1008091B00081608093B00080914B
:100B70007A00846080937A0080917A00826080930A
:100B80007A0080917A00816080937A0080917A0067
:100B9000806880937A001092C10060E08AE00E9431
:100BA000AB0260E089E00E94AB0261E086E00E9457
:100BB000AB0261E087E00E94AB0261E08DE00E9441
:100BC000AB02E0916901F0916A0182E08083E091DB
:100BD0006501F09166011082E0916701F091680172
:100BE0008FEC808310927101E0916D01F0916E01A4
:100BF00086E08083E0916B01F0916C0180818061DF
:100C00008083E0916B01F0916C018081886080832A
:100C1000E0916B01F0916C01808180688083E091AC
:100C20006B01F0916C0180818F7D808380911B022C
:100C30008C3008F051C061E088E00E94AB028091E6
:100C40001B02282F30E0F901EE0FFF1FE20FF31F08
:100C5000EA50FE4F9081907C9860908310921C0225
:100C600010921D022CE0622F0E944508829FB00165
:100C7000112430E020E0AB01420F531FFA01EE0FC8
:100C8000FF1FE40FF51FEA50FE4F908196FD16C03E
:100C90002F5F3F4F2C30310571F781110FC010923B
:100CA000800082E080938100109285001092840081
:100CB000B19A80916F00826080936F00E0911B0277
:100CC0008E2F90E0FC01EE0FFF1FE80FF91FEA5096
:100CD000FE4F80818064808390E080E00E948D00E0
:100CE0000BEB10E04DE9242E40E0342E50E9C52EE8
:100CF000DD24D394E12CF12C8AE00E9428025C01CF
:100D000089E00E9428024C0183E191E00E940103E6
:100D1000B5010B2C000C880B990B97FF58C00E9453
:100D2000520388E191E00E9401038BE191E00E946F
:100D30000103B401092C000C880B990B97FF4BC0E1
:100D40000E94520380E291E00E9401038A94892864
:100D500021F0AA94AB2809F01FC182E291E00E9421
:100D6000010388E191E00E94010361E086E00E94B6
:100D7000510260E087E00E945102809100018D30B5
:100D800071F5E2ECF0E0C491C7FDC8C061E08DE010
:100D90000E94AB02CC2309F491C0C23009F0A2C07A
:100DA0008091B100887F83608093B10089EF809348
:100DB000B300C0924D01D0924E01E0924F01F092EB
:100DC000500180917000826080937000A7C04AE05B
:100DD0000E940E03A6CF4AE00E940E03B3CF8F3FBE
:100DE00009F09CC08DE080930001E2ECF0E0C4913A
:100DF000CF3F09F493C0C13019F150F0C23009F46B
:100E00003CC0C7FD8BC061E08DE00E94AB02C5CF46
:100E100014BC15BC84B5826084BD85B5816085BD78
:100E2000F8018491E82FF0E0EE0FFF1FEC55FF4F23
:100E300085919491F101849180934C01C0E0A6CFFB
:100E400010928000109281008091810088608093D0
:100E5000810080918100816080938100F8018491FC
:100E6000E82FF0E0EE0FFF1FEC55FF4F85919491B6
:100E7000F101849180934B0189CF1092B0001092C0
:100E8000B1008091B00082608093B0008091B10089
:100E900081608093B100F8018491E82FF0E0EE0FBB
:100EA000FF1FEC55FF4F8591949190934A018093D9
:100EB0004901F10184918093480168CF85B5887F0D
:100EC000836085BD8CE787BDC0925501D0925601E5
:100ED000E0925701F092580180916E0082608093F9
:100EE0006E001CC0C13009F04FC080918100887F26
:100EF0008160809381008FE39FE1909389008093CC
:100F00008800C0925101D0925201E0925301F092B8
:100F1000540180916F00826080936F0084EB90E0B9
:100F20000E948D000E94DC022B013C0184EF882E80
:100F300099249394A12CB12C0E94DC0264197509A8
:100F400086099709683E734081059105A8F391E0F1
:100F5000891A9108A108B108E8EE4E0EE3E05E1E82
:100F6000611C711C81149104A104B10429F780E073
:100F700090E0892B09F4C0CE0E945C01882309F41B
:100F8000BBCE0E940000B8CEC23021F0C111C6CF46
:100F90008FE399CF8FE30BCF85E391E00E940103AC
:100FA00088E191E00E94010360E086E00E94510226
:100FB00061E087E00E9451028DE00E947F0290E094
:100FC00080E0AECF052E97FB1EF400940E94F90737
:100FD00057FD07D00E94140807FC03D04EF40C9470
:100FE000F90750954095309521953F4F4F4F5F4FF2
:100FF000089590958095709561957F4F8F4F9F4F85
:1010000008950E943608A59F900DB49F900DA49F4F
:10101000800D911D11240895B7FF0C9401080E94C2
:101020000108821B930B0895A1E21A2EAA1BBB1B79
:10103000FD010DC0AA1FBB1FEE1FFF1FA217B307A4
:10104000E407F50720F0A21BB30BE40BF50B661FBA
:10105000771F881F991F1A9469F76095709580957E
:1010600090959B01AC01BD01CF010895A29FB001F5
:10107000B39FC001A39F700D811D1124911DB29FCC
:10108000700D811D1124911D0895991B79E004C0F4
:10109000991F961708F0961B881F7A95C9F78095B7
:1010A0000895EE0FFF1F0590F491E02D0994F89438
:0210B000FFCF70
:1010B200FF000000009201F2001F01DF0150012E2B
:1010C2000142014620563A000D0A004720563A00D6
:1010D20020004669726520416C61726D204F6E205E
:0E10E20021212121004E6F2046697265000019
:00000001FF
